{
  "contractName": "ParkMate",
  "abi": [
    {
      "inputs": [],
      "stateMutability": "nonpayable",
      "type": "constructor"
    },
    {
      "inputs": [],
      "name": "balance",
      "outputs": [
        {
          "internalType": "uint256",
          "name": "",
          "type": "uint256"
        }
      ],
      "stateMutability": "view",
      "type": "function",
      "constant": true
    },
    {
      "inputs": [],
      "name": "owner",
      "outputs": [
        {
          "internalType": "address",
          "name": "",
          "type": "address"
        }
      ],
      "stateMutability": "view",
      "type": "function",
      "constant": true
    },
    {
      "inputs": [
        {
          "internalType": "uint256",
          "name": "amount",
          "type": "uint256"
        }
      ],
      "name": "payParkingFees",
      "outputs": [],
      "stateMutability": "nonpayable",
      "type": "function"
    },
    {
      "inputs": [],
      "name": "deposit",
      "outputs": [],
      "stateMutability": "payable",
      "type": "function",
      "payable": true
    },
    {
      "inputs": [
        {
          "internalType": "uint256",
          "name": "amount",
          "type": "uint256"
        }
      ],
      "name": "withdraw",
      "outputs": [],
      "stateMutability": "nonpayable",
      "type": "function"
    },
    {
      "inputs": [],
      "name": "getBalance",
      "outputs": [
        {
          "internalType": "uint256",
          "name": "",
          "type": "uint256"
        }
      ],
      "stateMutability": "view",
      "type": "function",
      "constant": true
    }
  ],
  "bytecode": "0x608060405234801561001057600080fd5b50336000806101000a81548173ffffffffffffffffffffffffffffffffffffffff021916908373ffffffffffffffffffffffffffffffffffffffff1602179055506108b4806100606000396000f3fe6080604052600436106100555760003560e01c806312065fe01461005a5780632e1a7d4d146100855780633b92c21c146100ae5780638da5cb5b146100d7578063b69ef8a814610102578063d0e30db01461012d575b600080fd5b34801561006657600080fd5b5061006f610137565b60405161007c9190610427565b60405180910390f35b34801561009157600080fd5b506100ac60048036038101906100a79190610473565b610141565b005b3480156100ba57600080fd5b506100d560048036038101906100d09190610473565b610297565b005b3480156100e357600080fd5b506100ec610386565b6040516100f991906104e1565b60405180910390f35b34801561010e57600080fd5b506101176103aa565b6040516101249190610427565b60405180910390f35b6101356103b0565b005b6000600154905090565b60008054906101000a900473ffffffffffffffffffffffffffffffffffffffff1673ffffffffffffffffffffffffffffffffffffffff163373ffffffffffffffffffffffffffffffffffffffff16146101cf576040517f08c379a00000000000000000000000000000000000000000000000000000000081526004016101c69061057f565b60405180910390fd5b806001541015610214576040517f08c379a000000000000000000000000000000000000000000000000000000000815260040161020b90610611565b60405180910390fd5b80600160008282546102269190610660565b9250508190555060008054906101000a900473ffffffffffffffffffffffffffffffffffffffff1673ffffffffffffffffffffffffffffffffffffffff166108fc829081150290604051600060405180830381858888f19350505050158015610293573d6000803e3d6000fd5b5050565b60008054906101000a900473ffffffffffffffffffffffffffffffffffffffff1673ffffffffffffffffffffffffffffffffffffffff163373ffffffffffffffffffffffffffffffffffffffff1614610325576040517f08c379a000000000000000000000000000000000000000000000000000000000815260040161031c90610706565b60405180910390fd5b80600154101561036a576040517f08c379a000000000000000000000000000000000000000000000000000000000815260040161036190610798565b60405180910390fd5b806001600082825461037c9190610660565b9250508190555050565b60008054906101000a900473ffffffffffffffffffffffffffffffffffffffff1681565b60015481565b600034116103f3576040517f08c379a00000000000000000000000000000000000000000000000000000000081526004016103ea9061082a565b60405180910390fd5b3460016000828254610405919061084a565b92505081905550565b6000819050919050565b6104218161040e565b82525050565b600060208201905061043c6000830184610418565b92915050565b600080fd5b6104508161040e565b811461045b57600080fd5b50565b60008135905061046d81610447565b92915050565b60006020828403121561048957610488610442565b5b60006104978482850161045e565b91505092915050565b600073ffffffffffffffffffffffffffffffffffffffff82169050919050565b60006104cb826104a0565b9050919050565b6104db816104c0565b82525050565b60006020820190506104f660008301846104d2565b92915050565b600082825260208201905092915050565b7f4f6e6c792074686520636172206f776e65722063616e2077697468647261772060008201527f66756e64732066726f6d20746865204361722057616c6c65742e000000000000602082015250565b6000610569603a836104fc565b91506105748261050d565b604082019050919050565b600060208201905081810360008301526105988161055c565b9050919050565b7f496e73756666696369656e742062616c616e636520746f206d616b652074686560008201527f207769746864726177616c2e0000000000000000000000000000000000000000602082015250565b60006105fb602c836104fc565b91506106068261059f565b604082019050919050565b6000602082019050818103600083015261062a816105ee565b9050919050565b7f4e487b7100000000000000000000000000000000000000000000000000000000600052601160045260246000fd5b600061066b8261040e565b91506106768361040e565b925082820390508181111561068e5761068d610631565b5b92915050565b7f4f6e6c792074686520636172206f776e65722063616e2070617920746865207060008201527f61726b696e6720666565732e0000000000000000000000000000000000000000602082015250565b60006106f0602c836104fc565b91506106fb82610694565b604082019050919050565b6000602082019050818103600083015261071f816106e3565b9050919050565b7f496e73756666696369656e742062616c616e636520746f20706179207468652060008201527f7061726b696e6720666565732e00000000000000000000000000000000000000602082015250565b6000610782602d836104fc565b915061078d82610726565b604082019050919050565b600060208201905081810360008301526107b181610775565b9050919050565b7f4465706f73697420616d6f756e74206d7573742062652067726561746572207460008201527f68616e20302e0000000000000000000000000000000000000000000000000000602082015250565b60006108146026836104fc565b915061081f826107b8565b604082019050919050565b6000602082019050818103600083015261084381610807565b9050919050565b60006108558261040e565b91506108608361040e565b925082820190508082111561087857610877610631565b5b9291505056fea26469706673582212202653b58c2ca781b2222f4ddd82d71cd6c0b6618f0e5f48ffd1277b977f97f20d64736f6c63430008130033",
  "immutableReferences": {},
  "source": "// SPDX-License-Identifier: MIT\r\npragma solidity ^0.8.19;\r\n\r\ncontract ParkMate {\r\n\r\n    address public owner;\r\n    uint public balance;\r\n\r\n    constructor() {\r\n        owner = msg.sender;\r\n    }\r\n\r\n    function payParkingFees(uint amount) public {\r\n        require(msg.sender == owner, \"Only the car owner can pay the parking fees.\");\r\n        require(balance >= amount, \"Insufficient balance to pay the parking fees.\");\r\n\r\n        balance -= amount;\r\n        //To authorize the start of the engine goes here\r\n    }\r\n\r\n    function deposit() public payable {\r\n        require(msg.value > 0, \"Deposit amount must be greater than 0.\");\r\n        balance += msg.value;\r\n        //Yo notify the car that it has received a deposit goes here\r\n    }\r\n\r\n    function withdraw(uint amount) public {\r\n        require(msg.sender == owner, \"Only the car owner can withdraw funds from the Car Wallet.\");\r\n        require(balance >= amount, \"Insufficient balance to make the withdrawal.\");\r\n\r\n        balance -= amount;\r\n        payable(owner).transfer(amount);\r\n    }\r\n\r\n    function getBalance() public view returns (uint) {\r\n        return balance;\r\n    }\r\n}",
  "sourcePath": "D:\\Web\\ParkMate\\contracts\\ParkMate.sol",
  "compiler": {
    "name": "solc",
    "version": "0.8.19+commit.7dd6d404.Emscripten.clang"
  },
  "schemaVersion": "3.4.13",
  "updatedAt": "2023-04-19T18:53:27.962Z",
  "networkType": "ethereum",
  "devdoc": {
    "kind": "dev",
    "methods": {},
    "version": 1
  },
  "userdoc": {
    "kind": "user",
    "methods": {},
    "version": 1
  }
}